:020000040800F2
:100000000004002001010008630100085B010008F2
:100010005F010008490100080D030008000000000E
:100020000000000000000000000000009501000832
:10003000590100080000000065010008A90200083D
:100040001B0100081B0100081B0100081B01000820
:100050001B0100081B0100081B0100081B01000810
:100060001B0100081B0100081B0100081B01000800
:100070001B0100081B0100081B0100081B010008F0
:100080001B0100081B0100081B0100081B010008E0
:100090001B0100081B0100081B0100081B010008D0
:1000A0001B0100081B0100081B0100081B010008C0
:1000B0001B0100081B0100081B0100081B010008B0
:1000C0001B0100081B0100081B0100081B010008A0
:1000D0001B0100081B0100081B0100081B01000890
:1000E0001B0100081B0100081B010008DFF80CD0F1
:1000F00000F018F8004800472F0300080004002013
:100100000648804706480047FEE7FEE7FEE7FEE7B1
:10011000FEE7FEE7FEE7FEE7FEE7FEE7AD020008CA
:10012000ED000008064C074D06E0E06840F00103D2
:1001300094E8070098471034AC42F6D3FFF7DAFF93
:100140003C0300084C03000800BFFEE710B56FF049
:10015000040000F095F810BD704700BFFEE700BF37
:10016000FEE770477047000029B1064A92690243D2
:10017000044B9A6104E0034A92698243014B9A61FD
:10018000704700000010024010B501211C20FFF74D
:10019000EBFF10BD704710B500F002F810BD000075
:1001A0000CB50020019000903348006840F4803086
:1001B0003149086000BF3048006800F4003000900A
:1001C0000198401C0190009818B90198B0F5A06FF3
:1001D000F1D12948006800F4003010B101200090EE
:1001E00001E0002000900098012843D123480068D6
:1001F00040F01000214908600846006820F0030024
:1002000008600846006840F0020008601A4840682C
:10021000194948600846406848600846406840F40C
:10022000806048600846406820F47C1048600846BA
:10023000406840F4E81048600846006840F080706C
:10024000086000BF0C48006800F000700028F9D07A
:100250000948406820F003000749486008464068A4
:1002600040F00200486000BF0348406800F00C0006
:100270000828F9D10CBD0000001002400020024007
:10028000042808D14FF0E021096941F004014FF042
:10029000E022116107E04FF0E021096921F004013B
:1002A0004FF0E022116170477047000010B513480D
:1002B000006840F001001149086008464068104994
:1002C00008400E494860084600680E4908400B493E
:1002D00008600846006820F48020086008464068EE
:1002E00020F4FE0048604FF41F008860FFF753FFC2
:1002F0004FF000600449086010BD0000001002408B
:100300000000FFF8FFFFF6FE08ED00E000BFFEE78B
:1003100002E008C8121F08C1002AFAD170477047CE
:10032000002001E001C1121F002AFBD17047FFF736
:100330002BFFFFF70BFF00BFFEE700004C03000898
:0C03400000000020000400002003000862
:04000005080000ED02
:00000001FF
